{
  "contractName": "Contracts",
  "abi": [
    {
      "inputs": [],
      "stateMutability": "nonpayable",
      "type": "constructor"
    },
    {
      "anonymous": false,
      "inputs": [
        {
          "indexed": false,
          "internalType": "uint256",
          "name": "id",
          "type": "uint256"
        },
        {
          "indexed": false,
          "internalType": "bool",
          "name": "done",
          "type": "bool"
        }
      ],
      "name": "ContractCompleted",
      "type": "event"
    },
    {
      "anonymous": false,
      "inputs": [
        {
          "indexed": false,
          "internalType": "uint256",
          "name": "id",
          "type": "uint256"
        },
        {
          "indexed": false,
          "internalType": "string",
          "name": "contratatante",
          "type": "string"
        },
        {
          "indexed": false,
          "internalType": "string",
          "name": "contratado",
          "type": "string"
        },
        {
          "indexed": false,
          "internalType": "string",
          "name": "grante",
          "type": "string"
        },
        {
          "indexed": false,
          "internalType": "string",
          "name": "grante1",
          "type": "string"
        },
        {
          "indexed": false,
          "internalType": "string",
          "name": "grante2",
          "type": "string"
        },
        {
          "indexed": false,
          "internalType": "string",
          "name": "descripcion",
          "type": "string"
        },
        {
          "indexed": false,
          "internalType": "string",
          "name": "date",
          "type": "string"
        },
        {
          "indexed": false,
          "internalType": "string",
          "name": "monto",
          "type": "string"
        },
        {
          "indexed": false,
          "internalType": "bool",
          "name": "done",
          "type": "bool"
        }
      ],
      "name": "ContractCreated",
      "type": "event"
    },
    {
      "anonymous": false,
      "inputs": [
        {
          "indexed": false,
          "internalType": "uint256",
          "name": "id",
          "type": "uint256"
        },
        {
          "indexed": false,
          "internalType": "bool",
          "name": "done",
          "type": "bool"
        }
      ],
      "name": "ContractDone",
      "type": "event"
    },
    {
      "inputs": [
        {
          "internalType": "address",
          "name": "",
          "type": "address"
        },
        {
          "internalType": "uint256",
          "name": "",
          "type": "uint256"
        }
      ],
      "name": "contracts",
      "outputs": [
        {
          "internalType": "uint256",
          "name": "id",
          "type": "uint256"
        },
        {
          "internalType": "string",
          "name": "contratatante",
          "type": "string"
        },
        {
          "internalType": "string",
          "name": "contratado",
          "type": "string"
        },
        {
          "internalType": "string",
          "name": "grante",
          "type": "string"
        },
        {
          "internalType": "string",
          "name": "grante1",
          "type": "string"
        },
        {
          "internalType": "string",
          "name": "grante2",
          "type": "string"
        },
        {
          "internalType": "string",
          "name": "descripcion",
          "type": "string"
        },
        {
          "internalType": "string",
          "name": "date",
          "type": "string"
        },
        {
          "internalType": "string",
          "name": "monto",
          "type": "string"
        },
        {
          "internalType": "bool",
          "name": "done",
          "type": "bool"
        }
      ],
      "stateMutability": "view",
      "type": "function",
      "constant": true
    },
    {
      "inputs": [
        {
          "internalType": "address",
          "name": "",
          "type": "address"
        }
      ],
      "name": "contractsCount",
      "outputs": [
        {
          "internalType": "uint256",
          "name": "",
          "type": "uint256"
        }
      ],
      "stateMutability": "view",
      "type": "function",
      "constant": true
    },
    {
      "inputs": [
        {
          "internalType": "string",
          "name": "_contratante",
          "type": "string"
        },
        {
          "internalType": "string",
          "name": "_contratado",
          "type": "string"
        },
        {
          "internalType": "string",
          "name": "_garante",
          "type": "string"
        },
        {
          "internalType": "string",
          "name": "_garante1",
          "type": "string"
        },
        {
          "internalType": "string",
          "name": "_garante2",
          "type": "string"
        },
        {
          "internalType": "string",
          "name": "_descripcion",
          "type": "string"
        },
        {
          "internalType": "string",
          "name": "_date",
          "type": "string"
        },
        {
          "internalType": "string",
          "name": "_monto",
          "type": "string"
        }
      ],
      "name": "createContract",
      "outputs": [],
      "stateMutability": "nonpayable",
      "type": "function"
    },
    {
      "inputs": [
        {
          "internalType": "uint256",
          "name": "_id",
          "type": "uint256"
        }
      ],
      "name": "toggleDone",
      "outputs": [],
      "stateMutability": "nonpayable",
      "type": "function"
    }
  ],
  "bytecode": "0x60806040523480156200001157600080fd5b50620001246040518060400160405280600e81526020016d030783132333435363737383938360941b8152506040518060400160405280600e81526020016d307831323334353637373839383360901b8152506040518060400160405280600681526020016542414e44454360d01b815250604051806040016040528060048152602001631b9d5b1b60e21b815250604051806040016040528060048152602001631b9d5b1b60e21b815250604051806060016040528060388152602001620017dd603891396040518060400160405280600b81526020016a019181919969819169819160ad1b815250604051806040016040528060048152602001630302e30360e41b8152506200012a60201b60201c565b620005a0565b336000818152600160208181526040808420548151610140810183528181528084018f81528184018f9052606082018e9052608082018d905260a082018c905260c082018b905260e082018a9052610100820189905261012082018790529686528584528286208287529093529320815181559351929390929091820190620001b4908262000392565b5060408201516002820190620001cb908262000392565b5060608201516003820190620001e2908262000392565b5060808201516004820190620001f9908262000392565b5060a0820151600582019062000210908262000392565b5060c0820151600682019062000227908262000392565b5060e082015160078201906200023e908262000392565b50610100820151600882019062000256908262000392565b5061012091909101516009909101805460ff19169115159190911790556040517fc557282d7d6e8d628060de1770837c4dab5315763d03863744ebb4479e5cc07890620002b89083908c908c908c908c908c908c908c908c90600090620004a6565b60405180910390a1336000908152600160205260408120805491620002dd8362000578565b9190505550505050505050505050565b634e487b7160e01b600052604160045260246000fd5b600181811c908216806200031857607f821691505b6020821081036200033957634e487b7160e01b600052602260045260246000fd5b50919050565b601f8211156200038d57600081815260208120601f850160051c81016020861015620003685750805b601f850160051c820191505b81811015620003895782815560010162000374565b5050505b505050565b81516001600160401b03811115620003ae57620003ae620002ed565b620003c681620003bf845462000303565b846200033f565b602080601f831160018114620003fe5760008415620003e55750858301515b600019600386901b1c1916600185901b17855562000389565b600085815260208120601f198616915b828110156200042f578886015182559484019460019091019084016200040e565b50858210156200044e5787850151600019600388901b60f8161c191681555b5050505050600190811b01905550565b6000815180845260005b81811015620004865760208185018101518683018201520162000468565b506000602082860101526020601f19601f83011685010191505092915050565b60006101408c8352806020840152620004c28184018d6200045e565b90508281036040840152620004d8818c6200045e565b90508281036060840152620004ee818b6200045e565b9050828103608084015262000504818a6200045e565b905082810360a08401526200051a81896200045e565b905082810360c08401526200053081886200045e565b905082810360e08401526200054681876200045e565b90508281036101008401526200055d81866200045e565b9150508215156101208301529b9a5050505050505050505050565b6000600182016200059957634e487b7160e01b600052601160045260246000fd5b5060010190565b61122d80620005b06000396000f3fe608060405234801561001057600080fd5b506004361061004c5760003560e01c8063c74844c814610051578063d81ef73914610066578063ed23f8c314610079578063f491f6c6146100ab575b600080fd5b61006461005f366004610dbe565b6100d9565b005b610064610074366004610efe565b610288565b61008c610087366004610f33565b610883565b6040516100a29a99989796959493929190610fa3565b60405180910390f35b6100cb6100b9366004611065565b60016020526000908152604090205481565b6040519081526020016100a2565b336000818152600160208181526040808420548151610140810183528181528084018f81528184018f9052606082018e9052608082018d905260a082018c905260c082018b905260e082018a90526101008201899052610120820187905296865285845282862082875290935293208151815593519293909290918201906101619082611110565b50604082015160028201906101769082611110565b506060820151600382019061018b9082611110565b50608082015160048201906101a09082611110565b5060a082015160058201906101b59082611110565b5060c082015160068201906101ca9082611110565b5060e082015160078201906101df9082611110565b5061010082015160088201906101f59082611110565b5061012091909101516009909101805460ff19169115159190911790556040517fc557282d7d6e8d628060de1770837c4dab5315763d03863744ebb4479e5cc078906102559083908c908c908c908c908c908c908c908c90600090610fa3565b60405180910390a1336000908152600160205260408120805491610278836111d0565b9190505550505050505050505050565b336000908152602081815260408083208484528252808320815161014081019092528054825260018101805492939192918401916102c590611087565b80601f01602080910402602001604051908101604052809291908181526020018280546102f190611087565b801561033e5780601f106103135761010080835404028352916020019161033e565b820191906000526020600020905b81548152906001019060200180831161032157829003601f168201915b5050505050815260200160028201805461035790611087565b80601f016020809104026020016040519081016040528092919081815260200182805461038390611087565b80156103d05780601f106103a5576101008083540402835291602001916103d0565b820191906000526020600020905b8154815290600101906020018083116103b357829003601f168201915b505050505081526020016003820180546103e990611087565b80601f016020809104026020016040519081016040528092919081815260200182805461041590611087565b80156104625780601f1061043757610100808354040283529160200191610462565b820191906000526020600020905b81548152906001019060200180831161044557829003601f168201915b5050505050815260200160048201805461047b90611087565b80601f01602080910402602001604051908101604052809291908181526020018280546104a790611087565b80156104f45780601f106104c9576101008083540402835291602001916104f4565b820191906000526020600020905b8154815290600101906020018083116104d757829003601f168201915b5050505050815260200160058201805461050d90611087565b80601f016020809104026020016040519081016040528092919081815260200182805461053990611087565b80156105865780601f1061055b57610100808354040283529160200191610586565b820191906000526020600020905b81548152906001019060200180831161056957829003601f168201915b5050505050815260200160068201805461059f90611087565b80601f01602080910402602001604051908101604052809291908181526020018280546105cb90611087565b80156106185780601f106105ed57610100808354040283529160200191610618565b820191906000526020600020905b8154815290600101906020018083116105fb57829003601f168201915b5050505050815260200160078201805461063190611087565b80601f016020809104026020016040519081016040528092919081815260200182805461065d90611087565b80156106aa5780601f1061067f576101008083540402835291602001916106aa565b820191906000526020600020905b81548152906001019060200180831161068d57829003601f168201915b505050505081526020016008820180546106c390611087565b80601f01602080910402602001604051908101604052809291908181526020018280546106ef90611087565b801561073c5780601f106107115761010080835404028352916020019161073c565b820191906000526020600020905b81548152906001019060200180831161071f57829003601f168201915b50505091835250506009919091015460ff161515602091820152610120820180511590523360009081528082526040808220868352835290208251815590820151919250829160018201906107919082611110565b50604082015160028201906107a69082611110565b50606082015160038201906107bb9082611110565b50608082015160048201906107d09082611110565b5060a082015160058201906107e59082611110565b5060c082015160068201906107fa9082611110565b5060e0820151600782019061080f9082611110565b5061010082015160088201906108259082611110565b5061012091820151600991909101805460ff19169115159190911790558101516040805184815291151560208301527f560ac3fb609472c4257be62c67528fd50d2c010b1ade58c63e3e82828d622934910160405180910390a15050565b6000602081815292815260408082209093529081522080546001820180549192916108ad90611087565b80601f01602080910402602001604051908101604052809291908181526020018280546108d990611087565b80156109265780601f106108fb57610100808354040283529160200191610926565b820191906000526020600020905b81548152906001019060200180831161090957829003601f168201915b50505050509080600201805461093b90611087565b80601f016020809104026020016040519081016040528092919081815260200182805461096790611087565b80156109b45780601f10610989576101008083540402835291602001916109b4565b820191906000526020600020905b81548152906001019060200180831161099757829003601f168201915b5050505050908060030180546109c990611087565b80601f01602080910402602001604051908101604052809291908181526020018280546109f590611087565b8015610a425780601f10610a1757610100808354040283529160200191610a42565b820191906000526020600020905b815481529060010190602001808311610a2557829003601f168201915b505050505090806004018054610a5790611087565b80601f0160208091040260200160405190810160405280929190818152602001828054610a8390611087565b8015610ad05780601f10610aa557610100808354040283529160200191610ad0565b820191906000526020600020905b815481529060010190602001808311610ab357829003601f168201915b505050505090806005018054610ae590611087565b80601f0160208091040260200160405190810160405280929190818152602001828054610b1190611087565b8015610b5e5780601f10610b3357610100808354040283529160200191610b5e565b820191906000526020600020905b815481529060010190602001808311610b4157829003601f168201915b505050505090806006018054610b7390611087565b80601f0160208091040260200160405190810160405280929190818152602001828054610b9f90611087565b8015610bec5780601f10610bc157610100808354040283529160200191610bec565b820191906000526020600020905b815481529060010190602001808311610bcf57829003601f168201915b505050505090806007018054610c0190611087565b80601f0160208091040260200160405190810160405280929190818152602001828054610c2d90611087565b8015610c7a5780601f10610c4f57610100808354040283529160200191610c7a565b820191906000526020600020905b815481529060010190602001808311610c5d57829003601f168201915b505050505090806008018054610c8f90611087565b80601f0160208091040260200160405190810160405280929190818152602001828054610cbb90611087565b8015610d085780601f10610cdd57610100808354040283529160200191610d08565b820191906000526020600020905b815481529060010190602001808311610ceb57829003601f168201915b5050506009909301549192505060ff168a565b634e487b7160e01b600052604160045260246000fd5b600082601f830112610d4257600080fd5b813567ffffffffffffffff80821115610d5d57610d5d610d1b565b604051601f8301601f19908116603f01168101908282118183101715610d8557610d85610d1b565b81604052838152866020858801011115610d9e57600080fd5b836020870160208301376000602085830101528094505050505092915050565b600080600080600080600080610100898b031215610ddb57600080fd5b883567ffffffffffffffff80821115610df357600080fd5b610dff8c838d01610d31565b995060208b0135915080821115610e1557600080fd5b610e218c838d01610d31565b985060408b0135915080821115610e3757600080fd5b610e438c838d01610d31565b975060608b0135915080821115610e5957600080fd5b610e658c838d01610d31565b965060808b0135915080821115610e7b57600080fd5b610e878c838d01610d31565b955060a08b0135915080821115610e9d57600080fd5b610ea98c838d01610d31565b945060c08b0135915080821115610ebf57600080fd5b610ecb8c838d01610d31565b935060e08b0135915080821115610ee157600080fd5b50610eee8b828c01610d31565b9150509295985092959890939650565b600060208284031215610f1057600080fd5b5035919050565b80356001600160a01b0381168114610f2e57600080fd5b919050565b60008060408385031215610f4657600080fd5b610f4f83610f17565b946020939093013593505050565b6000815180845260005b81811015610f8357602081850181015186830182015201610f67565b506000602082860101526020601f19601f83011685010191505092915050565b60006101408c8352806020840152610fbd8184018d610f5d565b90508281036040840152610fd1818c610f5d565b90508281036060840152610fe5818b610f5d565b90508281036080840152610ff9818a610f5d565b905082810360a084015261100d8189610f5d565b905082810360c08401526110218188610f5d565b905082810360e08401526110358187610f5d565b905082810361010084015261104a8186610f5d565b9150508215156101208301529b9a5050505050505050505050565b60006020828403121561107757600080fd5b61108082610f17565b9392505050565b600181811c9082168061109b57607f821691505b6020821081036110bb57634e487b7160e01b600052602260045260246000fd5b50919050565b601f82111561110b57600081815260208120601f850160051c810160208610156110e85750805b601f850160051c820191505b81811015611107578281556001016110f4565b5050505b505050565b815167ffffffffffffffff81111561112a5761112a610d1b565b61113e816111388454611087565b846110c1565b602080601f831160018114611173576000841561115b5750858301515b600019600386901b1c1916600185901b178555611107565b600085815260208120601f198616915b828110156111a257888601518255948401946001909101908401611183565b50858210156111c05787850151600019600388901b60f8161c191681555b5050505050600190811b01905550565b6000600182016111f057634e487b7160e01b600052601160045260246000fd5b506001019056fea2646970667358221220e1fc932d98c396b7ba5ba388dea9b5e4a8a36070015becf38fa643fb6d64c7eb64736f6c634300081100336676677261676e697220627267696a7276206e79207274676366202074687665726874677665776879767765722074687677657262747638",
  "immutableReferences": {},
  "source": "// SPDX-License-Identifier: MIT\npragma solidity ^0.8.0;\n\ncontract Contracts{\n\n  struct Contract{\n    uint256 id;\n    string contratatante;\n    string contratado;\n    string grante;\n    string grante1;\n    string grante2;\n    string descripcion;\n    string date;\n    string monto;\n    bool done;\n  }\n\n  event ContractCreated(\n    uint256 id,\n    string contratatante,\n    string contratado,\n    string grante,\n    string grante1,\n    string grante2,\n    string descripcion,\n    string date,\n    string monto,\n    bool done\n  );\n\n  event ContractCompleted(\n    uint256 id,\n    bool done\n  );\n\n  event ContractDone(\n    uint id,\n    bool done\n  );\n\n  mapping(address => mapping(uint => Contract)) public contracts;\n  mapping(address => uint) public contractsCount;\n\n  constructor(){\n    createContract(\"0x123456778980\", \"0x123456778983\", \"BANDEC\", \"null\", \"null\", \"fvgragnir brgijrv ny rtgcf  thverhtgvewhyvwer thvwerbtv8\", \"2023-02-02 \", \"0.00\");\n  }\n\n\n\n  function createContract(string memory _contratante, string memory _contratado, string memory _garante, string memory _garante1, string memory _garante2, string memory _descripcion, string memory _date, string memory _monto) public {\n    uint contractCount = contractsCount[msg.sender];\n    contracts[msg.sender][contractCount] = Contract(\n      contractCount, \n      _contratante, \n      _contratado,\n      _garante, \n      _garante1, \n      _garante2, \n \n      _descripcion, \n      _date, \n      _monto, \n      false\n    );\n    emit ContractCreated(\n      contractCount, \n      _contratante, \n      _contratado,\n      _garante, \n      _garante1, \n      _garante2, \n      _descripcion, \n      _date, \n      _monto, \n      false\n    );\n    contractsCount[msg.sender]++;\n  }\n\n  function toggleDone(uint _id) public{\n    Contract memory task = contracts[msg.sender][_id];\n    task.done = !task.done;\n    contracts[msg.sender][_id] = task;\n    emit ContractDone(_id, task.done);\n  }\n}",
  "sourcePath": "/home/fidel/Documentos/TesisDaniela/csolutionextjs/contracts/Contracts.sol",
  "compiler": {
    "name": "solc",
    "version": "0.8.17+commit.8df45f5f.Emscripten.clang"
  },
  "schemaVersion": "3.4.11",
  "updatedAt": "2023-04-02T14:18:08.419Z",
  "networkType": "ethereum",
  "devdoc": {
    "kind": "dev",
    "methods": {},
    "version": 1
  },
  "userdoc": {
    "kind": "user",
    "methods": {},
    "version": 1
  }
}