{
  "contractName": "EtherTransfer",
  "abi": [
    {
      "inputs": [],
      "name": "destinationAddress",
      "outputs": [
        {
          "internalType": "address payable",
          "name": "",
          "type": "address"
        }
      ],
      "stateMutability": "view",
      "type": "function",
      "constant": true
    },
    {
      "inputs": [
        {
          "internalType": "address payable",
          "name": "walletAddress",
          "type": "address"
        },
        {
          "internalType": "uint256",
          "name": "etherAmount",
          "type": "uint256"
        }
      ],
      "name": "transferEther",
      "outputs": [
        {
          "internalType": "bool",
          "name": "",
          "type": "bool"
        }
      ],
      "stateMutability": "nonpayable",
      "type": "function"
    }
  ],
  "bytecode": "0x608060405234801561001057600080fd5b506101d3806100206000396000f3fe608060405234801561001057600080fd5b50600436106100365760003560e01c806305b1137b1461003b578063ca32546914610063575b600080fd5b61004e610049366004610165565b61008e565b60405190151581526020015b60405180910390f35b600054610076906001600160a01b031681565b6040516001600160a01b03909116815260200161005a565b600081836001600160a01b03163110156100ee5760405162461bcd60e51b815260206004820152601e60248201527f4e6f7420656e6f75676820657468657220696e207468652077616c6c65740000604482015260640160405180910390fd5b6040516001600160a01b0384169083156108fc029084906000818181858888f193505050501561015b57600080546040516001600160a01b039091169184156108fc02918591818181858888f19350505050158015610151573d6000803e3d6000fd5b506001905061015f565b5060005b92915050565b6000806040838503121561017857600080fd5b82356001600160a01b038116811461018f57600080fd5b94602093909301359350505056fea2646970667358221220e3ed13db97fa99c619ea4d3736af8356e5ddd9f10e436cf33a9034114d9eabd964736f6c63430008110033",
  "immutableReferences": {},
  "source": "/*\nContrato inteligente en Solidity que recibe la dirección de una billetera\n y una cantidad de ether, y luego verifica si la billetera contiene \nla cantidad de ether especificada. Si es así, transfiere los ether a una cuenta \npredefinida y devuelve true. Si no se realiza la transferencia, devuelve false:\n*/\n// SPDX-License-Identifier: MIT\npragma solidity ^0.8.0;\n\ncontract EtherTransfer {\n    address payable public destinationAddress;\n    \n    function transferEther(address payable walletAddress, uint256 etherAmount) public returns(bool) {\n        require(walletAddress.balance >= etherAmount, \"Not enough ether in the wallet\");\n        if (walletAddress.send(etherAmount)) {\n            destinationAddress.transfer(etherAmount);\n            return true;\n        } else {\n            return false;\n        }\n    }\n}\n/*\nEn este contrato, la dirección de la cuenta predefinida se almacena en \ndestinationAddress. La función transferEther toma la dirección de la \nbilletera y la cantidad de ether como parámetros y verifica si la \nbilletera contiene la cantidad de ether especificada utilizando la \nfunción require. Si la billetera contiene suficientes ether, \ntransfiere la cantidad de ether especificada a la cuenta predefinida \nutilizando la función send y devuelve true. \nSi la transferencia falla, devuelve false.\n*/",
  "sourcePath": "/home/fidel/Documentos/TesisDaniela/csolutionextjs/contracts/EtherTransfer.sol",
  "compiler": {
    "name": "solc",
    "version": "0.8.17+commit.8df45f5f.Emscripten.clang"
  },
  "schemaVersion": "3.4.11",
  "updatedAt": "2023-04-02T14:18:09.018Z",
  "networkType": "ethereum",
  "devdoc": {
    "kind": "dev",
    "methods": {},
    "version": 1
  },
  "userdoc": {
    "kind": "user",
    "methods": {},
    "version": 1
  }
}