{
  "contractName": "NotificationContract",
  "abi": [
    {
      "anonymous": false,
      "inputs": [
        {
          "indexed": true,
          "internalType": "address",
          "name": "user",
          "type": "address"
        },
        {
          "indexed": false,
          "internalType": "string",
          "name": "message",
          "type": "string"
        },
        {
          "indexed": false,
          "internalType": "uint256",
          "name": "value",
          "type": "uint256"
        }
      ],
      "name": "NotificationSent",
      "type": "event"
    },
    {
      "inputs": [
        {
          "internalType": "address",
          "name": "user",
          "type": "address"
        },
        {
          "internalType": "string",
          "name": "message",
          "type": "string"
        }
      ],
      "name": "sendNotification",
      "outputs": [],
      "stateMutability": "payable",
      "type": "function"
    }
  ],
  "bytecode": "0x608060405234801561001057600080fd5b506102dc806100206000396000f3fe60806040526004361061001e5760003560e01c806349f66a2c14610023575b600080fd5b610036610031366004610181565b610038565b005b600034116100805760405162461bcd60e51b815260206004820152601060248201526f14185e5b595b9d081c995c5d5a5c995960821b60448201526064015b60405180910390fd5b6000826001600160a01b03163460405160006040518083038185875af1925050503d80600081146100cd576040519150601f19603f3d011682016040523d82523d6000602084013e6100d2565b606091505b50509050806101235760405162461bcd60e51b815260206004820152601b60248201527f4661696c656420746f2073656e64206e6f74696669636174696f6e00000000006044820152606401610077565b826001600160a01b03167f0e56496e7845d35096a7dd244a5831377abd0806bd53d8a4ad27975be7ffb694833460405161015e929190610251565b60405180910390a2505050565b634e487b7160e01b600052604160045260246000fd5b6000806040838503121561019457600080fd5b82356001600160a01b03811681146101ab57600080fd5b9150602083013567ffffffffffffffff808211156101c857600080fd5b818501915085601f8301126101dc57600080fd5b8135818111156101ee576101ee61016b565b604051601f8201601f19908116603f011681019083821181831017156102165761021661016b565b8160405282815288602084870101111561022f57600080fd5b8260208601602083013760006020848301015280955050505050509250929050565b604081526000835180604084015260005b8181101561027f5760208187018101516060868401015201610262565b506000606082850101526060601f19601f830116840101915050826020830152939250505056fea26469706673582212203086f5b168db304e16b5399002245c0469b8f5ea904fe3ee479eeae100bb8f1264736f6c63430008110033",
  "immutableReferences": {},
  "source": "// SPDX-License-Identifier: MIT\npragma solidity ^0.8.0;\n\ncontract NotificationContract {\n    function sendNotification(address user, string memory message) public payable {\n        require(msg.value > 0, \"Payment required\");\n\n        // Enva la notificacin al usuario\n        (bool success, ) = user.call{value: msg.value}(\"\");\n        require(success, \"Failed to send notification\");\n\n        // Registra la notificacin en el contrato\n        emit NotificationSent(user, message, msg.value);\n    }\n\n    event NotificationSent(address indexed user, string message, uint256 value);\n}\n\n/*\nEn este ejemplo, se define un contrato \"NotificationContract\" que contiene una funcin \"sendNotification\" que se utiliza para enviar una notificacin a un usuario. La funcin acepta la direccin del usuario y un mensaje de notificacin como parmetros. Adems, se requiere que se enve una cantidad de ether junto con la transaccin para cubrir los costos de la notificacin.\n\nLa funcin enva la cantidad de ether especificada al usuario utilizando la funcin \"call\" de Solidity. Si la llamada es exitosa, se registra la notificacin en el contrato y se emite un evento \"NotificationSent\" para informar a los usuarios interesados.\n\nEs importante tener en cuenta que esta implementacin es solo un ejemplo bsico y que se pueden agregar ms funcionalidades, como la posibilidad de enviar notificaciones a varios usuarios a la vez o la capacidad de eliminar notificaciones antiguas. Adems, debes tener en cuenta que el envo de ether a travs de Solidity puede ser riesgoso y debes tomar medidas adicionales para garantizar la seguridad de tu contrato.\n*/",
  "sourcePath": "/home/fidel/Documentos/TesisDaniela/csolutionextjs/contracts/NotificationContract.sol",
  "compiler": {
    "name": "solc",
    "version": "0.8.17+commit.8df45f5f.Emscripten.clang"
  },
  "schemaVersion": "3.4.11",
  "updatedAt": "2023-04-02T14:18:04.047Z",
  "devdoc": {
    "kind": "dev",
    "methods": {},
    "version": 1
  },
  "userdoc": {
    "kind": "user",
    "methods": {},
    "version": 1
  }
}