{
  "contractName": "Notification",
  "abi": [
    {
      "inputs": [
        {
          "internalType": "address",
          "name": "_otherContractAddress",
          "type": "address"
        },
        {
          "internalType": "uint256",
          "name": "_requiredConfirmations",
          "type": "uint256"
        },
        {
          "internalType": "address payable",
          "name": "_destinationAddress",
          "type": "address"
        },
        {
          "internalType": "address",
          "name": "_refundAddress",
          "type": "address"
        },
        {
          "internalType": "contract NotificationContract",
          "name": "_notifications",
          "type": "address"
        }
      ],
      "stateMutability": "nonpayable",
      "type": "constructor"
    },
    {
      "inputs": [
        {
          "internalType": "address",
          "name": "",
          "type": "address"
        }
      ],
      "name": "confirmations",
      "outputs": [
        {
          "internalType": "bool",
          "name": "",
          "type": "bool"
        }
      ],
      "stateMutability": "view",
      "type": "function"
    },
    {
      "inputs": [],
      "name": "data",
      "outputs": [
        {
          "internalType": "address",
          "name": "contratatante",
          "type": "address"
        },
        {
          "internalType": "address",
          "name": "contratado",
          "type": "address"
        },
        {
          "internalType": "address",
          "name": "grante",
          "type": "address"
        },
        {
          "internalType": "address",
          "name": "grante1",
          "type": "address"
        },
        {
          "internalType": "address",
          "name": "grante2",
          "type": "address"
        },
        {
          "internalType": "uint256",
          "name": "numericValue",
          "type": "uint256"
        },
        {
          "internalType": "uint256",
          "name": "date",
          "type": "uint256"
        }
      ],
      "stateMutability": "view",
      "type": "function"
    },
    {
      "inputs": [],
      "name": "destinationAddress",
      "outputs": [
        {
          "internalType": "address payable",
          "name": "",
          "type": "address"
        }
      ],
      "stateMutability": "view",
      "type": "function"
    },
    {
      "inputs": [],
      "name": "isConfirmed",
      "outputs": [
        {
          "internalType": "bool",
          "name": "",
          "type": "bool"
        }
      ],
      "stateMutability": "view",
      "type": "function"
    },
    {
      "inputs": [],
      "name": "notifications",
      "outputs": [
        {
          "internalType": "contract NotificationContract",
          "name": "",
          "type": "address"
        }
      ],
      "stateMutability": "view",
      "type": "function"
    },
    {
      "inputs": [],
      "name": "numericValue",
      "outputs": [
        {
          "internalType": "uint256",
          "name": "",
          "type": "uint256"
        }
      ],
      "stateMutability": "view",
      "type": "function"
    },
    {
      "inputs": [],
      "name": "otherContractAddress",
      "outputs": [
        {
          "internalType": "address",
          "name": "",
          "type": "address"
        }
      ],
      "stateMutability": "view",
      "type": "function"
    },
    {
      "inputs": [],
      "name": "refundAddress",
      "outputs": [
        {
          "internalType": "address",
          "name": "",
          "type": "address"
        }
      ],
      "stateMutability": "view",
      "type": "function"
    },
    {
      "inputs": [],
      "name": "requiredConfirmations",
      "outputs": [
        {
          "internalType": "uint256",
          "name": "",
          "type": "uint256"
        }
      ],
      "stateMutability": "view",
      "type": "function"
    },
    {
      "inputs": [],
      "name": "confirm",
      "outputs": [],
      "stateMutability": "nonpayable",
      "type": "function"
    },
    {
      "inputs": [],
      "name": "execute",
      "outputs": [],
      "stateMutability": "nonpayable",
      "type": "function"
    },
    {
      "inputs": [],
      "name": "refund",
      "outputs": [],
      "stateMutability": "nonpayable",
      "type": "function"
    },
    {
      "inputs": [],
      "name": "getConfirmationCount",
      "outputs": [
        {
          "internalType": "uint256",
          "name": "",
          "type": "uint256"
        }
      ],
      "stateMutability": "view",
      "type": "function"
    },
    {
      "inputs": [
        {
          "internalType": "uint256",
          "name": "index",
          "type": "uint256"
        }
      ],
      "name": "getConfirmationAddress",
      "outputs": [
        {
          "internalType": "address",
          "name": "",
          "type": "address"
        }
      ],
      "stateMutability": "view",
      "type": "function"
    }
  ],
  "bytecode": "0x60e0604052602560808181529062000b6d60a039600690620000229082620003b9565b503480156200003057600080fd5b5060405162000b9238038062000b9283398101604081905262000053916200049e565b600080546001600160a01b038088166001600160a01b03199283168117909355600187905560028054878316908416179055600380548683169316929092179091556005805491841661010002610100600160a81b0319909216919091179055604080516303bc5de360e41b81529051633bc5de309160048082019260e0929091908290030181865afa158015620000ef573d6000803e3d6000fd5b505050506040513d601f19601f8201168201806040525081019062000115919062000512565b600e819055600d91909155600c80546001600160a01b03199081166001600160a01b0394851617909155600b8054821694841694909417909355600a80548416948316949094179093556009805483169482169490941790935560088054909116939092169290921790554214620001df5760405162461bcd60e51b8152602060048201526024808201527f4461746520646f6573206e6f74206d61746368207468652063757272656e74206044820152636461746560e01b606482015260840160405180910390fd5b600a546001600160a01b0316156200026957600554600a5460405163127d9a8b60e21b81526001600160a01b036101009093048316926349f66a2c926200022f92911690600690600401620005a5565b600060405180830381600087803b1580156200024a57600080fd5b505af11580156200025f573d6000803e3d6000fd5b5050505062000309565b600b546001600160a01b031615620002b957600554600b5460405163127d9a8b60e21b81526001600160a01b036101009093048316926349f66a2c926200022f92911690600690600401620005a5565b600c546001600160a01b0316156200030957600554600c5460405163127d9a8b60e21b81526001600160a01b036101009093048316926349f66a2c926200022f92911690600690600401620005a5565b505050505062000648565b634e487b7160e01b600052604160045260246000fd5b600181811c908216806200033f57607f821691505b6020821081036200036057634e487b7160e01b600052602260045260246000fd5b50919050565b601f821115620003b457600081815260208120601f850160051c810160208610156200038f5750805b601f850160051c820191505b81811015620003b0578281556001016200039b565b5050505b505050565b81516001600160401b03811115620003d557620003d562000314565b620003ed81620003e684546200032a565b8462000366565b602080601f8311600181146200042557600084156200040c5750858301515b600019600386901b1c1916600185901b178555620003b0565b600085815260208120601f198616915b82811015620004565788860151825594840194600190910190840162000435565b5085821015620004755787850151600019600388901b60f8161c191681555b5050505050600190811b01905550565b6001600160a01b03811681146200049b57600080fd5b50565b600080600080600060a08688031215620004b757600080fd5b8551620004c48162000485565b602087015160408801519196509450620004de8162000485565b6060870151909350620004f18162000485565b6080870151909250620005048162000485565b809150509295509295909350565b600080600080600080600060e0888a0312156200052e57600080fd5b87516200053b8162000485565b60208901519097506200054e8162000485565b6040890151909650620005618162000485565b6060890151909550620005748162000485565b6080890151909450620005878162000485565b8093505060a0880151915060c0880151905092959891949750929550565b60018060a01b03831681526000602060408184015260008454620005c9816200032a565b8060408701526060600180841660008114620005ee5760018114620006095762000639565b60ff1985168984015283151560051b89018301955062000639565b896000528660002060005b85811015620006315781548b820186015290830190880162000614565b8a0184019650505b50939998505050505050505050565b61051580620006586000396000f3fe608060405234801561001057600080fd5b50600436106100ea5760003560e01c806373d4a13a1161008c57806391f78e4c1161006657806391f78e4c14610237578063a79a3cee1461023e578063c0a15e991461024b578063ca3254691461025e57600080fd5b806373d4a13a1461019757806382e717f714610216578063888f232c1461021f57600080fd5b80634ecb35c4116100c85780634ecb35c41461014a578063590e1ae31461017d57806361461954146101875780637022b58e1461018f57600080fd5b80630cb61f6c146100ef578063345feb5a1461011f5780634627e9d314610136575b600080fd5b600354610102906001600160a01b031681565b6040516001600160a01b0390911681526020015b60405180910390f35b61012860045481565b604051908152602001610116565b610102610144366004610441565b50600090565b61016d61015836600461045a565b60076020526000908152604090205460ff1681565b6040519015158152602001610116565b610185610271565b005b610185610308565b610185610396565b600854600954600a54600b54600c54600d54600e546101cb966001600160a01b039081169681169581169481169316919087565b604080516001600160a01b0398891681529688166020880152948716948601949094529185166060850152909316608083015260a082019290925260c081019190915260e001610116565b61012860015481565b6005546101029061010090046001600160a01b031681565b6000610128565b60055461016d9060ff1681565b600054610102906001600160a01b031681565b600254610102906001600160a01b031681565b60055460ff16156102c95760405162461bcd60e51b815260206004820181905260248201527f5472616e73616374696f6e20697320616c726561647920636f6e6669726d656460448201526064015b60405180910390fd5b6003546004546040516001600160a01b039092169181156108fc0291906000818181858888f19350505050158015610305573d6000803e3d6000fd5b50565b60055460ff1661035a5760405162461bcd60e51b815260206004820152601c60248201527f5472616e73616374696f6e206973206e6f7420636f6e6669726d65640000000060448201526064016102c0565b6002546004546040516001600160a01b039092169181156108fc0291906000818181858888f19350505050158015610305573d6000803e3d6000fd5b3360009081526007602052604090205460ff16156103f65760405162461bcd60e51b815260206004820152601c60248201527f53656e6465722068617320616c726561647920636f6e6669726d65640000000060448201526064016102c0565b336000908152600760205260408120805460ff191660011790556004600060015461042191906104a0565b61042b91906104bd565b8110610305576005805460ff1916600117905550565b60006020828403121561045357600080fd5b5035919050565b60006020828403121561046c57600080fd5b81356001600160a01b038116811461048357600080fd5b9392505050565b634e487b7160e01b600052601160045260246000fd5b80820281158282048414176104b7576104b761048a565b92915050565b6000826104da57634e487b7160e01b600052601260045260246000fd5b50049056fea2646970667358221220a12dabee0ab965859c12e8bec93e95429cc98f864c4d00aaa1c986798663bca764736f6c634300081100332054686520636f6e747261637420697320726561647920746f206265206578656375746564",
  "immutableReferences": {},
  "source": "/*\nAqu est el cdigo del contrato inteligente en Solidity que toma una direccin de billetera, una cantidad numrica y una fecha de una estructura de datos en otro contrato inteligente, verifica si la fecha coincide con la fecha actual y enva una notificacin a los usuarios que no sean nulos en la misma estructura. Espera la confirmacin de al menos tres cuartas partes de los usuarios y luego enva la cantidad numrica a la direccin de la billetera desde una billetera predefinida. Si la confirmacin es falsa, devuelve la cantidad numrica desde la billetera predefinida a otra billetera que tambin se encuentra en una estructura en otro contrato inteligente:\n*/\n// SPDX-License-Identifier: MIT\npragma solidity ^0.8.0;\n\nimport \"./NotificationContract.sol\";\n\ncontract Notification {\n    struct Data {\n        address contratatante;\n        address contratado;\n        address grante;\n        address grante1;\n        address grante2;\n        uint256 numericValue;\n        uint256 date;\n    }\n    \n    address public otherContractAddress;\n    uint256 public requiredConfirmations;\n    address payable public destinationAddress;\n    address public refundAddress;\n    uint256 public numericValue;\n    bool public isConfirmed;\n    NotificationContract public notifications;\n    string message = \" The contract is ready to be executed\";\n    \n    mapping(address => bool) public confirmations;\n    Data public data;\n    \n    constructor(address _otherContractAddress, uint256 _requiredConfirmations, address payable _destinationAddress, \n                address _refundAddress, NotificationContract _notifications) {\n        otherContractAddress = _otherContractAddress;\n        requiredConfirmations = _requiredConfirmations;\n        destinationAddress = _destinationAddress;\n        refundAddress = _refundAddress;\n        notifications = _notifications;\n\n        \n        // Obtener los datos de la estructura de datos en otro contrato inteligente\n        (data.contratatante, data.contratado, data.grante, data.grante1, data.grante2, data.numericValue, data.date) \n            = OtherContract(otherContractAddress).getData();\n        \n        // Verificar si la fecha es la actual\n        require(data.date == block.timestamp, \"Date does not match the current date\");\n        \n        // Enviar notificacin a los usuarios que no son nulos en la misma estructura\n        if (data.grante != address(0)) {\n            // Implementar la lgica para enviar notificaciones a los usuarios\n            return notifications.sendNotification(data.grante, message);\n\n              \n            \n        }\n        if (data.grante1 != address(0)) {\n            // Implementar la lgica para enviar notificaciones a los usuarios\n            return notifications.sendNotification(data.grante1, message);\n\n        }      \n        if (data.grante2 != address(0)) {\n                    // Implementar la lgica para enviar notificaciones a los usuarios\n                   return notifications.sendNotification(data.grante2, message);\n                }\n    }\n    \n    function confirm() public {\n        // Verificar que el remitente no haya confirmado anteriormente\n        require(!confirmations[msg.sender], \"Sender has already confirmed\");\n        \n        // Marcar al remitente como confirmado\n        confirmations[msg.sender] = true;\n        \n        // Verificar si se ha alcanzado el nmero requerido de confirmaciones\n        uint256 count = 0;\n        for (uint256 i = 0; i < getConfirmationCount(); i++) {\n            if (confirmations[getConfirmationAddress(i)]) {\n                count++;\n            }\n        }\n        if (count >= ((requiredConfirmations * getConfirmationCount()) / 4)) {\n            isConfirmed = true;\n        }\n    }\n    \n    function execute() public {\n        require(isConfirmed, \"Transaction is not confirmed\");\n        destinationAddress.transfer(numericValue);\n    }\n    \n    function refund() public {\n        require(!isConfirmed, \"Transaction is already confirmed\");\n        payable(refundAddress).transfer(numericValue);\n    }\n    \n    function getConfirmationCount() public view returns (uint256) {\n        // Implementar la lgica para obtener el nmero de confirmaciones\n    }\n    \n    function getConfirmationAddress(uint256 index) public view returns (address) {\n        // Implementar la lgica para obtener la direccin del ndice de confirmacin\n    }\n}\n\ninterface OtherContract {\n    function getData() external view returns (address, address, address, address, address, uint256, uint256);\n}\n\n/*\nEn este contrato, la direccin del otro contrato inteligente que contiene la estructura de datos se almacena en otherContractAddress. La cantidad de confirmaciones requeridas se almacena en requiredConfirmations. La direccin de la billetera a la que se enviar la cantidad numrica se almacena en destinationAddress, y la direccin de la billetera a la que se reembolsar la cantidad numrica si la confirmacin es falsa se almacena en refundAddress.\n\nEl constructor del contrato obtiene los datos de la estructura de datos en el otro contrato inteligente y verifica si la fecha coincide con la fecha actual. Luego, enva una notificacin a los usuarios que no son nulos en la misma estructura.\n\nLa funcin confirm se utiliza para que los usuarios confirmen la transaccin. La funcin execute se utiliza para enviar la cantidad numrica a la direccin de la billetera si se han recibido confirmaciones suficientes. La funcin refund se utiliza para reembolsar la cantidad numrica si la confirmacin es falsa.\n\nLas funciones getConfirmationCount y getConfirmationAddress se utilizan para obtener el nmero de confirmaciones y la direccin de la confirmacin en un ndice especfico, respectivamente.\n*/",
  "sourcePath": "/home/fidel/Documentos/TesisDaniela/csolutionextjs/contracts/Notification.sol",
  "compiler": {
    "name": "solc",
    "version": "0.8.17+commit.8df45f5f.Emscripten.clang"
  },
  "schemaVersion": "3.4.11",
  "updatedAt": "2023-04-02T14:18:04.038Z",
  "devdoc": {
    "kind": "dev",
    "methods": {},
    "version": 1
  },
  "userdoc": {
    "kind": "user",
    "methods": {},
    "version": 1
  }
}