{
  "contractName": "Transaction",
  "abi": [
    {
      "inputs": [
        {
          "internalType": "address",
          "name": "_owner",
          "type": "address"
        }
      ],
      "stateMutability": "nonpayable",
      "type": "constructor"
    },
    {
      "inputs": [],
      "name": "owner",
      "outputs": [
        {
          "internalType": "address",
          "name": "",
          "type": "address"
        }
      ],
      "stateMutability": "view",
      "type": "function",
      "constant": true
    },
    {
      "inputs": [
        {
          "internalType": "address payable",
          "name": "to",
          "type": "address"
        },
        {
          "internalType": "uint256",
          "name": "amount",
          "type": "uint256"
        }
      ],
      "name": "send",
      "outputs": [],
      "stateMutability": "nonpayable",
      "type": "function"
    },
    {
      "inputs": [],
      "name": "deposit",
      "outputs": [],
      "stateMutability": "payable",
      "type": "function",
      "payable": true
    },
    {
      "inputs": [],
      "name": "balanceOf",
      "outputs": [
        {
          "internalType": "uint256",
          "name": "",
          "type": "uint256"
        }
      ],
      "stateMutability": "view",
      "type": "function",
      "constant": true
    }
  ],
  "bytecode": "0x608060405234801561001057600080fd5b5060405161026d38038061026d83398101604081905261002f91610054565b600080546001600160a01b0319166001600160a01b0392909216919091179055610084565b60006020828403121561006657600080fd5b81516001600160a01b038116811461007d57600080fd5b9392505050565b6101da806100936000396000f3fe60806040526004361061003f5760003560e01c8063722713f7146100445780638da5cb5b14610064578063d0679d341461009c578063d0e30db0146100bc575b600080fd5b34801561005057600080fd5b506040514781526020015b60405180910390f35b34801561007057600080fd5b50600054610084906001600160a01b031681565b6040516001600160a01b03909116815260200161005b565b3480156100a857600080fd5b506100bc6100b736600461016c565b6100be565b005b6000546001600160a01b0316330361010b576040516001600160a01b0383169082156108fc029083906000818181858888f19350505050158015610106573d6000803e3d6000fd5b505050565b60405162461bcd60e51b815260206004820152602c60248201527f4573746120637565627461206e6f207469656e65207065726d697469646f206560448201526b6e766961722064696e65726f60a01b606482015260840160405180910390fd5b6000806040838503121561017f57600080fd5b82356001600160a01b038116811461019657600080fd5b94602093909301359350505056fea2646970667358221220c7ac2abe7458ab8ab598a617e874b969077b77631e69cff6206b7b5f1f94788064736f6c63430008110033",
  "immutableReferences": {},
  "source": "// SPDX-License-Identifier: MIT\npragma solidity ^0.8.0;\n\ncontract  Transaction {\n\n    address public owner;\n\n    constructor (address _owner){\n        owner = _owner;\n    }\n\n    function send (address payable to, uint amount ) public {\n        if(msg.sender == owner){\n            to.transfer(amount);\n            return;\n        }\n        revert(\"Esta cuebta no tiene permitido enviar dinero\");\n    }\n\n    function deposit () payable public {\n\n    }\n    \n    function balanceOf () view public returns(uint){\n        return address(this).balance;\n    }\n}\n\n",
  "sourcePath": "/home/fidel/Documentos/TesisDaniela/csolutionextjs/contracts/Transaction.sol",
  "compiler": {
    "name": "solc",
    "version": "0.8.17+commit.8df45f5f.Emscripten.clang"
  },
  "schemaVersion": "3.4.11",
  "updatedAt": "2023-04-02T14:18:08.673Z",
  "networkType": "ethereum",
  "devdoc": {
    "kind": "dev",
    "methods": {},
    "version": 1
  },
  "userdoc": {
    "kind": "user",
    "methods": {},
    "version": 1
  }
}